export default {
  hash: '0xde42aebbd6ad19ed53b9f8c97dd64d8475be8f6631e44f61b5e6af8a085de02a',
  logsBloom: '0x00000000040000000000000000000000000000000400000000800000000000000000000000000000000000000080000008000000000000000000000000000000000000000000040000000080000010000001100000000000000000000000000000000000000000000008004000000000000000000000000000000000000000000000000000000000000000000004000000000000000200000000000000000100000000000000000000000000000000000000010000000000000000000000000000000000000000000000000000000001000000001000000020000000000000000000000000100000000000000000000000000000400000000000000000000000',
  number: 3577514,
  size: 2877,
  timestamp: 1492818484,
  transactions: [
    {
      blockHash: '0xde42aebbd6ad19ed53b9f8c97dd64d8475be8f6631e44f61b5e6af8a085de02a',
      blockNumber: 3577514,
      condition: null,
      creates: null,
      from: '0xa74476443119A942dE498590Fe1f2454d7D4aC1d',
      gas: 100000,
      gasPrice: [Object,
      ],
      hash: '0xea5cca50746eb8eeee99af14306f170a674ca954b6e3df124a526bffc1712164',
      input: '0x',
      networkId: 1,
      nonce: 13677,
      publicKey: '0x68faed184f27fe919a715bba13d8009f5809fcde2dd173a1fcfd0a1e5b740cf92161ce6d1a9dedb5f94233b48b186bc4c09aa759f2f593f0edffd6c37ad40449',
      r: '0x41177c79fb22591a15088963f6738952ebbb27428d7d4cce34a406c2675e02d5',
      raw: '0xf87082356d85174876e800830186a09493e2e8eac3f80ad391e6dc914b80368beed967318905865e714ea32e20008025a041177c79fb22591a15088963f6738952ebbb27428d7d4cce34a406c2675e02d5a047a533cf8b6b71de08638a88f71c902f41970a3b8203cfc9bb86440ba08b6a86',
      s: '0x47a533cf8b6b71de08638a88f71c902f41970a3b8203cfc9bb86440ba08b6a86',
      standardV: '0x0',
      to: '0xa74476443119A942dE498590Fe1f2454d7D4aC0d',
      transactionIndex: 0,
      v: '0x25',
      value: [Object,
      ],
    },
    {
      blockHash: '0xde42aebbd6ad19ed53b9f8c97dd64d8475be8f6631e44f61b5e6af8a085de02a',
      blockNumber: 3577514,
      condition: null,
      creates: null,
      from: '0x2a65aca4d5fc5b5c859090a6c34d164135398226',
      gas: 90000,
      gasPrice: [Object,
      ],
      hash: '0x4aec86bcad42726d20b88c45e95c45283fa15bd992ff98ac0f8fab8dd8ca9b4e',
      input: '0x',
      networkId: 1,
      nonce: 2146334,
      publicKey: '0x4c3eb5e19c71d8245eaaaba21ef8f94a70e9250848d10ade086f893a7a33a06d7063590e9e6ca88f918d7704840d903298fe802b6047fa7f6d09603eba690c39',
      r: '0x88e694c9e19d24ad3ade6e713d7af9d9b39cdbf512681939f2c10028c70c25f6',
      raw: '0xf8708320c01e8505d21dba0083015f90943d6fd0c2f76f2a1ef9f5b8b852000c41cca1aa6888038420be2074f0008025a088e694c9e19d24ad3ade6e713d7af9d9b39cdbf512681939f2c10028c70c25f6a027c9ec1ed2b673fce604acc9ca793c88b349cab4cb5261f04934bd7465bb317e',
      s: '0x27c9ec1ed2b673fce604acc9ca793c88b349cab4cb5261f04934bd7465bb317e',
      standardV: '0x0',
      to: '0xa74476443119A942dE498590Fe1f2454d7D4aC0d',
      transactionIndex: 1,
      v: '0x25',
      value: [Object,
      ],
    },
    {
      blockHash: '0xde42aebbd6ad19ed53b9f8c97dd64d8475be8f6631e44f61b5e6af8a085de02a',
      blockNumber: 3577514,
      condition: null,
      creates: null,
      from: '0xfbb1b73c4f0bda4f67dca266ce6ef42f520fbb98',
      gas: 121000,
      gasPrice: [Object,
      ],
      hash: '0xbf14069f154593d99667227d314d095489c16076ea84fa1669513f4092a3ff75',
      input: '0x',
      networkId: 1,
      nonce: 90563,
      publicKey: '0x8178af6e1ae9a747de289f2106a85875288b24a2c6bdb1f069cad506409abdd4f1bd1ac05507615c852a9a74cf3013f7b13b9e0f03870011993e575a357a308d',
      r: '0xa16e1e612f49cbba0cac7f0bef3db30f1a0c0e803622e9720999975f2446431d',
      raw: '0xf870830161c3850545df482d8301d8a89443d1765ff0701b64b47cdd0125b172bdabe4e721887ce66c50e28400008025a0a16e1e612f49cbba0cac7f0bef3db30f1a0c0e803622e9720999975f2446431da0450dd0aa957a207d4cc420681702342c984564e86f8e67f67b307eeb5ea50394',
      s: '0x450dd0aa957a207d4cc420681702342c984564e86f8e67f67b307eeb5ea50394',
      standardV: '0x0',
      to: '0xa74476443119A942dE498590Fe1f2454d7D4aC0d',
      transactionIndex: 2,
      v: '0x25',
      value: [Object,
      ],
    },
    {
      blockHash: '0xde42aebbd6ad19ed53b9f8c97dd64d8475be8f6631e44f61b5e6af8a085de02a',
      blockNumber: 3577514,
      condition: null,
      creates: null,
      from: '0xbb8795cf538824ab6a38ccfd166e1baa97fc6081',
      gas: 134470,
      gasPrice: [Object,
      ],
      hash: '0xc300c4d6fa7cc2fc2d5cd4dbe9fe1660e122a3b9ebf02a118e66d7034222d20c',
      input: '0x0f2c9329000000000000000000000000fbb1b73c4f0bda4f67dca266ce6ef42f520fbb98000000000000000000000000e592b0d8baa2cb677034389b76a71b0d1823e0d1',
      networkId: 1,
      nonce: 1,
      publicKey: '0x5a30eccee5f8c92a4be98bf9715d9c4179cc2c1ce2c49631bdc325837041bf8f5bddba9f6c4d69fe371e577903ad729b8789873c43a821f7a760d3d376b952e1',
      r: '0x1fcdd17c5acf7dcf5947fb500075d15321ec93cb641402f87bd1599bec919a1c',
      raw: '0xf8b20185052b8ea00283020d4694e94b04a0fed112f3664e45adb2b8915693dd5ff3881a5aa72e418a4400b8440f2c9329000000000000000000000000fbb1b73c4f0bda4f67dca266ce6ef42f520fbb98000000000000000000000000e592b0d8baa2cb677034389b76a71b0d1823e0d126a01fcdd17c5acf7dcf5947fb500075d15321ec93cb641402f87bd1599bec919a1ca009e363de273e2609faa655de46a3d8bbd7bae1f1579d29e2dd5b944c07e06f10',
      s: '0x9e363de273e2609faa655de46a3d8bbd7bae1f1579d29e2dd5b944c07e06f10',
      standardV: '0x1',
      to: '0xe94b04a0fed112f3664e45adb2b8915693dd5ff3',
      transactionIndex: 3,
      v: '0x26',
      value: [Object,
      ],
    },
    {
      blockHash: '0xde42aebbd6ad19ed53b9f8c97dd64d8475be8f6631e44f61b5e6af8a085de02a',
      blockNumber: 3577514,
      condition: null,
      creates: null,
      from: '0xa74476443119A942dE498590Fe1f2454d7D4aC1d',
      gas: 90000,
      gasPrice: [Object,
      ],
      hash: '0x431cb92d3cda875546131f7c8ef188d9db4cedf3bad7cfffa790afed0126ea14',
      input: '0x',
      networkId: 1,
      nonce: 32458,
      publicKey: '0xebcc812f7d649540a4fa81278a0d86a9d76ad2f1e3d211067cf2fe8176d7b698fc5dd3c3be5b8d82683559920644cdd42b16d52c0935bcc7464972a3051d6dba',
      r: '0x10962d305fc6ea6003b5d2fa050eab5019fe967a79fd2d4f715d8d27dac4c525',
      raw: '0xf86e827eca85052441c8de83015f9094ffeef122949f287bfd24e181a4637d1995ab1f0d872386f26fc100008026a010962d305fc6ea6003b5d2fa050eab5019fe967a79fd2d4f715d8d27dac4c525a029076bf2d3488b8bcb2269dd8b5069cc0dac3e108a79c27cec941600714c8a09',
      s: '0x29076bf2d3488b8bcb2269dd8b5069cc0dac3e108a79c27cec941600714c8a09',
      standardV: '0x1',
      to: '0xffeef122949f287bfd24e181a4637d1995ab1f0d',
      transactionIndex: 4,
      v: '0x26',
      value: [Object,
      ],
    },
    {
      blockHash: '0xde42aebbd6ad19ed53b9f8c97dd64d8475be8f6631e44f61b5e6af8a085de02a',
      blockNumber: 3577514,
      condition: null,
      creates: null,
      from: '0xea674fdde714fd979de3edf0f56aa9716b898ec8',
      gas: 90000,
      gasPrice: [Object,
      ],
      hash: '0x0ae3fcd3ce0813326a6fdd525a70ca7df9a043178659445e2b0374b1c0b76e64',
      input: '0x',
      networkId: 1,
      nonce: 1649576,
      publicKey: '0x5d8af02c52b1fb40e45d6e04ae2351d443d1f7327e9b6dbb5ae1d918414899c625690c4c236889e23d9705f9db88876542b959d947a3497a30d0d922ee30015f',
      r: '0xdf741d73f562cbec98762a17a6828e4fb84753eaee4153f32909ee4ea8bef91e',
      raw: '0xf87083192ba88504a817c80083015f90943975a7bd06fa5b0f2375bba28aeba73c67fe73a28802b921ef0a37ae208026a0df741d73f562cbec98762a17a6828e4fb84753eaee4153f32909ee4ea8bef91ea03f52170d26cf8db004e261a37466091cb3011550803a702348541e0b0757fa06',
      s: '0x3f52170d26cf8db004e261a37466091cb3011550803a702348541e0b0757fa06',
      standardV: '0x1',
      to: '0x3975a7bd06fa5b0f2375bba28aeba73c67fe73a2',
      transactionIndex: 5,
      v: '0x26',
      value: [Object,
      ],
    },
    {
      blockHash: '0xde42aebbd6ad19ed53b9f8c97dd64d8475be8f6631e44f61b5e6af8a085de02a',
      blockNumber: 3577514,
      condition: null,
      creates: null,
      from: '0x29d5527caa78f1946a409fa6acaf14a0a4a0274b',
      gas: 21000,
      gasPrice: [Object,
      ],
      hash: '0x391bac13ecb475537ae7d530ea922385a92c4c7eba8cfa7d8b0943fa40252785',
      input: '0x',
      networkId: 1,
      nonce: 4637,
      publicKey: '0x86fc009b3bccd622852fc6480e48aee954626731c5cc17734f5f3bfb7c0b3070cc281fbe40812ab9d5a9492e293835bafc865e02d49383fc603b8bce326dcb81',
      r: '0x38d90cd05f06ac0b1860392ad4c36a87307800749afa41ddf7c6a74c1983b6bc',
      raw: '0xf86e82121d8504a817c8008252089482be82c47b26054e62e14b069db4567e42519d21880210fdc744ee18008025a038d90cd05f06ac0b1860392ad4c36a87307800749afa41ddf7c6a74c1983b6bca021895ee97a018a97eeec84b2b346f4b59706da367b862d510a5c025431a30cf8',
      s: '0x21895ee97a018a97eeec84b2b346f4b59706da367b862d510a5c025431a30cf8',
      standardV: '0x0',
      to: '0x82be82c47b26054e62e14b069db4567e42519d21',
      transactionIndex: 6,
      v: '0x25',
      value: [Object,
      ],
    },
    {
      blockHash: '0xde42aebbd6ad19ed53b9f8c97dd64d8475be8f6631e44f61b5e6af8a085de02a',
      blockNumber: 3577514,
      condition: null,
      creates: null,
      from: '0x9435d50503aee35c8757ae4933f7a0ab56597805',
      gas: 90000,
      gasPrice: [Object,
      ],
      hash: '0x61f08ea0181d792c350e0c5481d8dbe8ec63dbea7054b2c5c7faf69525b7ba32',
      input: '0x',
      networkId: 1,
      nonce: 2387,
      publicKey: '0xd4f03de0c7324f93b2e3af9eee5f66863bbcbd77ee4a99b3427b19a848eaaf3aad80ee21838bf33a20a143e9940b0027fad1d59c9467ae5c532386ea61d27bb4',
      r: '0x7cf44c4b936912d839f0045e1ae95022461707de9558f384f689d97eec50ba18',
      raw: '0xf86f8209538504a817c80083015f909472819092e6ac16c214ccb4ce2891086581bae0b888032e663ecfa24e008025a07cf44c4b936912d839f0045e1ae95022461707de9558f384f689d97eec50ba18a0450998050da784486be86c5c77520c4102f1a63bfb133508e3edbb8633f70564',
      s: '0x450998050da784486be86c5c77520c4102f1a63bfb133508e3edbb8633f70564',
      standardV: '0x0',
      to: '0x72819092e6ac16c214ccb4ce2891086581bae0b8',
      transactionIndex: 7,
      v: '0x25',
      value: [Object,
      ],
    },
    {
      blockHash: '0xde42aebbd6ad19ed53b9f8c97dd64d8475be8f6631e44f61b5e6af8a085de02a',
      blockNumber: 3577514,
      condition: null,
      creates: null,
      from: '0x70faa28a6b8d6829a4b1e649d26ec9a2a39ba413',
      gas: 31000,
      gasPrice: [Object,
      ],
      hash: '0x979207c97fad9d304357e1a47089a6f38ed725d1a77ba65e2d01553b6a7598cd',
      input: '0x',
      networkId: null,
      nonce: 86858,
      publicKey: '0xbed0606698964b7ac7f4bf00f702f20bdfd7a77b2d3a3fca2d5f32211355a500fdb83ad9ee4cee2cc6c3e4d07cace919001cfe3a529c88c6401f4faf04a192e2',
      r: '0x861e7035d6412dbb6d245a9479196a4d24d2592d1763d2ba9a5a49a281ec218a',
      raw: '0xf8708301534a8504a817c8008279189439def0c7fb6c94a65e18fe471d9e93fdec661551890116aa7d9c91d80000801ca0861e7035d6412dbb6d245a9479196a4d24d2592d1763d2ba9a5a49a281ec218aa076790e2e5705cc7baca4589d5a727deb103b51b002f90e341db227eb3882ac2b',
      s: '0x76790e2e5705cc7baca4589d5a727deb103b51b002f90e341db227eb3882ac2b',
      standardV: '0x1',
      to: '0x39def0c7fb6c94a65e18fe471d9e93fdec661551',
      transactionIndex: 8,
      v: '0x1c',
      value: [Object,
      ],
    },
    {
      blockHash: '0xde42aebbd6ad19ed53b9f8c97dd64d8475be8f6631e44f61b5e6af8a085de02a',
      blockNumber: 3577514,
      condition: null,
      creates: null,
      from: '0x1e9939daaad6924ad004c2560e90804164900341',
      gas: 39000,
      gasPrice: [Object,
      ],
      hash: '0xd5669168c193bffef732f3f6f112fd8a586e6ea6f4a0059ba083af5b3cf384df',
      input: '0x',
      networkId: 1,
      nonce: 343720,
      publicKey: '0x9fd89da696721cb906af81fe5d8bc3d0a4a7368be52db98d9e3a2d7c5f7aef545e8e578c2a158236d6221512c5df892b23bbe1087966f134799d6e36d3097973',
      r: '0x86575933ed013e8453e9e760c6a4b16a80bac7a88d1d7923db0730f4d1e6334b',
      raw: '0xf86f83053ea88504a817c80082985894b8b9511a6845f5135a154e5e41f5aa396c40345e880e1684a2edac79dc8025a086575933ed013e8453e9e760c6a4b16a80bac7a88d1d7923db0730f4d1e6334ba0176f33df50e55b0c825eb4c045f2ba41922638809b3de7aad07d4f2989c7bce1',
      s: '0x176f33df50e55b0c825eb4c045f2ba41922638809b3de7aad07d4f2989c7bce1',
      standardV: '0x0',
      to: '0xb8b9511a6845f5135a154e5e41f5aa396c40345e',
      transactionIndex: 9,
      v: '0x25',
      value: [Object,
      ],
    },
    {
      blockHash: '0xde42aebbd6ad19ed53b9f8c97dd64d8475be8f6631e44f61b5e6af8a085de02a',
      blockNumber: 3577514,
      condition: null,
      creates: null,
      from: '0x70faa28a6b8d6829a4b1e649d26ec9a2a39ba413',
      gas: 31000,
      gasPrice: [Object,
      ],
      hash: '0x478b7d4f498f6ba283a98ef29226f3482cd3166dfbacc63943d6f531c2b0784e',
      input: '0x',
      networkId: null,
      nonce: 86859,
      publicKey: '0xbed0606698964b7ac7f4bf00f702f20bdfd7a77b2d3a3fca2d5f32211355a500fdb83ad9ee4cee2cc6c3e4d07cace919001cfe3a529c88c6401f4faf04a192e2',
      r: '0x2f82569c0c9e15b64807b78436542c8e2906e29ec9e9b369477979a51465d361',
      raw: '0xf8708301534b8504a817c80082791894ba798e819217bbc90b2c4126f059b68b8b4909f68901188fca967e298000801ba02f82569c0c9e15b64807b78436542c8e2906e29ec9e9b369477979a51465d361a01b6cdc65686be8b1b942a1d68fbb1cb8b002954d9d78621e471a88d324196a6e',
      s: '0x1b6cdc65686be8b1b942a1d68fbb1cb8b002954d9d78621e471a88d324196a6e',
      standardV: '0x0',
      to: '0xba798e819217bbc90b2c4126f059b68b8b4909f6',
      transactionIndex: 10,
      v: '0x1b',
      value: [Object,
      ],
    },
    {
      blockHash: '0xde42aebbd6ad19ed53b9f8c97dd64d8475be8f6631e44f61b5e6af8a085de02a',
      blockNumber: 3577514,
      condition: null,
      creates: null,
      from: '0x1e9939daaad6924ad004c2560e90804164900341',
      gas: 39000,
      gasPrice: [Object,
      ],
      hash: '0x7de8b2051921747657d487f7cb1687b44d85f89c12e386fd708de10988734e25',
      input: '0x',
      networkId: 1,
      nonce: 343721,
      publicKey: '0x9fd89da696721cb906af81fe5d8bc3d0a4a7368be52db98d9e3a2d7c5f7aef545e8e578c2a158236d6221512c5df892b23bbe1087966f134799d6e36d3097973',
      r: '0xd32f9e1c4500142dd2e23baa08ef6056a7c1393a80e9619323531297fe0d3b5e',
      raw: '0xf86f83053ea98504a817c80082985894d86c6f0bb961e83c1ea30e8ab9d5cc291952ec08880df8356504497b288026a0d32f9e1c4500142dd2e23baa08ef6056a7c1393a80e9619323531297fe0d3b5ea049dbc701f9b8343cb4fea3e2d8a879da7735da151c845120a4d64649605c2d89',
      s: '0x49dbc701f9b8343cb4fea3e2d8a879da7735da151c845120a4d64649605c2d89',
      standardV: '0x1',
      to: '0xd86c6f0bb961e83c1ea30e8ab9d5cc291952ec08',
      transactionIndex: 11,
      v: '0x26',
      value: [Object,
      ],
    },
    {
      blockHash: '0xde42aebbd6ad19ed53b9f8c97dd64d8475be8f6631e44f61b5e6af8a085de02a',
      blockNumber: 3577514,
      condition: null,
      creates: null,
      from: '0xea674fdde714fd979de3edf0f56aa9716b898ec8',
      gas: 90000,
      gasPrice: [Object,
      ],
      hash: '0xbe335f6e915027ab8e9fb69238fe735da920d8d5564122eeaaa5bf6109122299',
      input: '0x',
      networkId: 1,
      nonce: 1649577,
      publicKey: '0x5d8af02c52b1fb40e45d6e04ae2351d443d1f7327e9b6dbb5ae1d918414899c625690c4c236889e23d9705f9db88876542b959d947a3497a30d0d922ee30015f',
      r: '0x18a76d7f2d7f0b818375810d050692bc96e41f492ab1e7634913fd69e6cb8050',
      raw: '0xf87083192ba98504a817c80083015f909440f439d74644ac034b44bd75ee50903a1591fbff880151a9ddee7ba8048025a018a76d7f2d7f0b818375810d050692bc96e41f492ab1e7634913fd69e6cb8050a0476bcf47dbb8910c6af181efe9471f343339cc53927c38e420265c02234009fd',
      s: '0x476bcf47dbb8910c6af181efe9471f343339cc53927c38e420265c02234009fd',
      standardV: '0x0',
      to: '0x40f439d74644ac034b44bd75ee50903a1591fbff',
      transactionIndex: 12,
      v: '0x25',
      value: [Object,
      ],
    },
    {
      blockHash: '0xde42aebbd6ad19ed53b9f8c97dd64d8475be8f6631e44f61b5e6af8a085de02a',
      blockNumber: 3577514,
      condition: null,
      creates: null,
      from: '0xea674fdde714fd979de3edf0f56aa9716b898ec8',
      gas: 90000,
      gasPrice: [Object,
      ],
      hash: '0x409b5a72cf519bd1efd2bfcf2b6927dcae66fb414df8b26801b1cb6ff4ea08d2',
      input: '0x',
      networkId: 1,
      nonce: 1649578,
      publicKey: '0x5d8af02c52b1fb40e45d6e04ae2351d443d1f7327e9b6dbb5ae1d918414899c625690c4c236889e23d9705f9db88876542b959d947a3497a30d0d922ee30015f',
      r: '0x45b5f1afb3d64ec7ae9ef8777168cabc12d32b83982f6e6a5f835b436af44a53',
      raw: '0xf87083192baa8504a817c80083015f909445771f5f031ce46ae7d961e104eee3f01a5e0b6b880df3c947fb57d4708025a045b5f1afb3d64ec7ae9ef8777168cabc12d32b83982f6e6a5f835b436af44a53a0128b97725c157d8065cd974ef69859e9f28ae352e385653d9a822d4758e3cfff',
      s: '0x128b97725c157d8065cd974ef69859e9f28ae352e385653d9a822d4758e3cfff',
      standardV: '0x0',
      to: '0x45771f5f031ce46ae7d961e104eee3f01a5e0b6b',
      transactionIndex: 13,
      v: '0x25',
      value: [Object,
      ],
    },
    {
      blockHash: '0xde42aebbd6ad19ed53b9f8c97dd64d8475be8f6631e44f61b5e6af8a085de02a',
      blockNumber: 3577514,
      condition: null,
      creates: null,
      from: '0xea674fdde714fd979de3edf0f56aa9716b898ec8',
      gas: 90000,
      gasPrice: [Object,
      ],
      hash: '0x7685e3e473fd3e548ac8ddaa91948d71f84cc07fefb539c5c1e01708cc06d453',
      input: '0x',
      networkId: 1,
      nonce: 1649579,
      publicKey: '0x5d8af02c52b1fb40e45d6e04ae2351d443d1f7327e9b6dbb5ae1d918414899c625690c4c236889e23d9705f9db88876542b959d947a3497a30d0d922ee30015f',
      r: '0x633e1fcc68b5a9447faed4ef738b796249bc4c86d4e7fb5dfdd63b87381ed4c0',
      raw: '0xf87083192bab8504a817c80083015f90944874f7d4d1b5846fea429fd90cbc50dcbd02b7a888015ae9cbf2197b948026a0633e1fcc68b5a9447faed4ef738b796249bc4c86d4e7fb5dfdd63b87381ed4c0a0731d4fd7afabb4e5bc8b4b69b9c170cbdc03229a2b4bf76c7b49c704384717b0',
      s: '0x731d4fd7afabb4e5bc8b4b69b9c170cbdc03229a2b4bf76c7b49c704384717b0',
      standardV: '0x1',
      to: '0x4874f7d4d1b5846fea429fd90cbc50dcbd02b7a8',
      transactionIndex: 14,
      v: '0x26',
      value: [Object,
      ],
    },
    {
      blockHash: '0xde42aebbd6ad19ed53b9f8c97dd64d8475be8f6631e44f61b5e6af8a085de02a',
      blockNumber: 3577514,
      condition: null,
      creates: null,
      from: '0xea674fdde714fd979de3edf0f56aa9716b898ec8',
      gas: 90000,
      gasPrice: [Object,
      ],
      hash: '0x83faea55a9ee8bb6ea33740e8a90456cb13101e23acd6d6c2c8bccd6d3bac394',
      input: '0x',
      networkId: 1,
      nonce: 1649580,
      publicKey: '0x5d8af02c52b1fb40e45d6e04ae2351d443d1f7327e9b6dbb5ae1d918414899c625690c4c236889e23d9705f9db88876542b959d947a3497a30d0d922ee30015f',
      r: '0x6643192d2a5e287c684b738e7254d6ff25ae75bf76c6a462c44d1d4ab65bef5e',
      raw: '0xf87083192bac8504a817c80083015f90944e6fc9ae73a7500c970fd2263f9d8002040afb6a880ec81151f5757e288026a06643192d2a5e287c684b738e7254d6ff25ae75bf76c6a462c44d1d4ab65bef5ea009eaedb69f06c000a2ff1f2ba03081d2e35746febe88a22ff7fbd84b4099a87e',
      s: '0x9eaedb69f06c000a2ff1f2ba03081d2e35746febe88a22ff7fbd84b4099a87e',
      standardV: '0x1',
      to: '0x4e6fc9ae73a7500c970fd2263f9d8002040afb6a',
      transactionIndex: 15,
      v: '0x26',
      value: [Object,
      ],
    },
    {
      blockHash: '0xde42aebbd6ad19ed53b9f8c97dd64d8475be8f6631e44f61b5e6af8a085de02a',
      blockNumber: 3577514,
      condition: null,
      creates: null,
      from: '0xea674fdde714fd979de3edf0f56aa9716b898ec8',
      gas: 90000,
      gasPrice: [Object,
      ],
      hash: '0x987db25dd8cbe147c8a2cf03466e89ffd57022f8dc072f2afe30614665d1eae4',
      input: '0x',
      networkId: 1,
      nonce: 1649581,
      publicKey: '0x5d8af02c52b1fb40e45d6e04ae2351d443d1f7327e9b6dbb5ae1d918414899c625690c4c236889e23d9705f9db88876542b959d947a3497a30d0d922ee30015f',
      r: '0x36ceb36f002f5d00abf996bc9aa874e8336d53c28762dcedc4dc889afbd97e9b',
      raw: '0xf87083192bad8504a817c80083015f90944f846624f6739be8548713286d8bdca8f9536bef880de68f8a298a6ab08026a036ceb36f002f5d00abf996bc9aa874e8336d53c28762dcedc4dc889afbd97e9ba01f16707b3a1d35a64d25080bb2beb141392c8fd8293eaac09c1b94428bfc9b7d',
      s: '0x1f16707b3a1d35a64d25080bb2beb141392c8fd8293eaac09c1b94428bfc9b7d',
      standardV: '0x1',
      to: '0x4f846624f6739be8548713286d8bdca8f9536bef',
      transactionIndex: 16,
      v: '0x26',
      value: [Object,
      ],
    },
    {
      blockHash: '0xde42aebbd6ad19ed53b9f8c97dd64d8475be8f6631e44f61b5e6af8a085de02a',
      blockNumber: 3577514,
      condition: null,
      creates: null,
      from: '0xea674fdde714fd979de3edf0f56aa9716b898ec8',
      gas: 90000,
      gasPrice: [Object,
      ],
      hash: '0x178c3daa383ca02bcdaa0dd74e6618b721259efa9f584fa4ee7941b4fab92714',
      input: '0x',
      networkId: 1,
      nonce: 1649582,
      publicKey: '0x5d8af02c52b1fb40e45d6e04ae2351d443d1f7327e9b6dbb5ae1d918414899c625690c4c236889e23d9705f9db88876542b959d947a3497a30d0d922ee30015f',
      r: '0xb946700433d5e7a727e6f5be70b50d88d916adb5b7d5d0f205827246cec8d0d0',
      raw: '0xf87083192bae8504a817c80083015f90945450d45c6097df7738539a2976987deb9c7a3980880de1de5ffe1f97688026a0b946700433d5e7a727e6f5be70b50d88d916adb5b7d5d0f205827246cec8d0d0a0098675866bc45271b288738e42abd202daaacbae35b4a6ab769fa4c3a4dd217e',
      s: '0x98675866bc45271b288738e42abd202daaacbae35b4a6ab769fa4c3a4dd217e',
      standardV: '0x1',
      to: '0x5450d45c6097df7738539a2976987deb9c7a3980',
      transactionIndex: 17,
      v: '0x26',
      value: [Object,
      ],
    },
    {
      blockHash: '0xde42aebbd6ad19ed53b9f8c97dd64d8475be8f6631e44f61b5e6af8a085de02a',
      blockNumber: 3577514,
      condition: null,
      creates: null,
      from: '0xea674fdde714fd979de3edf0f56aa9716b898ec8',
      gas: 90000,
      gasPrice: [Object,
      ],
      hash: '0x826bdea808ad79995e575e1f26558a97eff401441d9ee3ea69fd45adc4765e18',
      input: '0x',
      networkId: 1,
      nonce: 1649583,
      publicKey: '0x5d8af02c52b1fb40e45d6e04ae2351d443d1f7327e9b6dbb5ae1d918414899c625690c4c236889e23d9705f9db88876542b959d947a3497a30d0d922ee30015f',
      r: '0x1b040189881a6b39c3e489ccfcdb514aa504075645bb61f26a88a5efb698203e',
      raw: '0xf87083192baf8504a817c80083015f90945a4e708b8b97ce0bee149d561273c52c2b5806a188018ba0cfad3056428026a01b040189881a6b39c3e489ccfcdb514aa504075645bb61f26a88a5efb698203ea008a88c04aa7e253f0d6ea13e876418597e4f5c2bd3c8f9a4dfafba025bb66587',
      s: '0x8a88c04aa7e253f0d6ea13e876418597e4f5c2bd3c8f9a4dfafba025bb66587',
      standardV: '0x1',
      to: '0x5a4e708b8b97ce0bee149d561273c52c2b5806a1',
      transactionIndex: 18,
      v: '0x26',
      value: [Object,
      ],
    },
    {
      blockHash: '0xde42aebbd6ad19ed53b9f8c97dd64d8475be8f6631e44f61b5e6af8a085de02a',
      blockNumber: 3577514,
      condition: null,
      creates: null,
      from: '0xea674fdde714fd979de3edf0f56aa9716b898ec8',
      gas: 90000,
      gasPrice: [Object,
      ],
      hash: '0x4d1e1ea66599b04bbf23a5aa5f8ec37ef329cb8bbbcdd901d32a41bf68781b8e',
      input: '0x',
      networkId: 1,
      nonce: 1649584,
      publicKey: '0x5d8af02c52b1fb40e45d6e04ae2351d443d1f7327e9b6dbb5ae1d918414899c625690c4c236889e23d9705f9db88876542b959d947a3497a30d0d922ee30015f',
      r: '0x4050732c24ccdaf298e0858af979e191444ddd85fa2cb5f5cf8937c68cbdf901',
      raw: '0xf87083192bb08504a817c80083015f90945e99255bafab1c964bea8e80d38843236a8d87fa880e6ba37579c275d48026a04050732c24ccdaf298e0858af979e191444ddd85fa2cb5f5cf8937c68cbdf901a07f40ebd4797726680bb42cda01a38803d2fc4d6f1a5ccfefe35a3e86ca7e6bde',
      s: '0x7f40ebd4797726680bb42cda01a38803d2fc4d6f1a5ccfefe35a3e86ca7e6bde',
      standardV: '0x1',
      to: '0x5e99255bafab1c964bea8e80d38843236a8d87fa',
      transactionIndex: 19,
      v: '0x26',
      value: [Object,
      ],
    },
  ],
  transactionsRoot: '0xb664a5f13b8e5d1990bed5cd64d854903be971fa8b06e58c62a757830e4b166b',
  uncles: [],
};
